{
  "contractName": "UniversityDiplomaSystem",
  "abi": [
    {
      "inputs": [
        {
          "internalType": "address",
          "name": "adminAddress",
          "type": "address"
        },
        {
          "internalType": "address",
          "name": "studentServiceAddress",
          "type": "address"
        }
      ],
      "stateMutability": "nonpayable",
      "type": "constructor"
    },
    {
      "anonymous": false,
      "inputs": [
        {
          "indexed": true,
          "internalType": "address",
          "name": "owner",
          "type": "address"
        },
        {
          "indexed": true,
          "internalType": "address",
          "name": "approved",
          "type": "address"
        },
        {
          "indexed": true,
          "internalType": "uint256",
          "name": "tokenId",
          "type": "uint256"
        }
      ],
      "name": "Approval",
      "type": "event"
    },
    {
      "anonymous": false,
      "inputs": [
        {
          "indexed": true,
          "internalType": "address",
          "name": "owner",
          "type": "address"
        },
        {
          "indexed": true,
          "internalType": "address",
          "name": "operator",
          "type": "address"
        },
        {
          "indexed": false,
          "internalType": "bool",
          "name": "approved",
          "type": "bool"
        }
      ],
      "name": "ApprovalForAll",
      "type": "event"
    },
    {
      "anonymous": false,
      "inputs": [
        {
          "indexed": false,
          "internalType": "uint256",
          "name": "_fromTokenId",
          "type": "uint256"
        },
        {
          "indexed": false,
          "internalType": "uint256",
          "name": "_toTokenId",
          "type": "uint256"
        }
      ],
      "name": "BatchMetadataUpdate",
      "type": "event"
    },
    {
      "anonymous": false,
      "inputs": [
        {
          "indexed": true,
          "internalType": "uint256",
          "name": "tokenId",
          "type": "uint256"
        },
        {
          "indexed": true,
          "internalType": "string",
          "name": "studentIndex",
          "type": "string"
        },
        {
          "indexed": true,
          "internalType": "address",
          "name": "invalidatedBy",
          "type": "address"
        },
        {
          "indexed": false,
          "internalType": "uint256",
          "name": "timestamp",
          "type": "uint256"
        },
        {
          "indexed": false,
          "internalType": "string",
          "name": "reason",
          "type": "string"
        }
      ],
      "name": "DiplomaInvalidated",
      "type": "event"
    },
    {
      "anonymous": false,
      "inputs": [
        {
          "indexed": true,
          "internalType": "uint256",
          "name": "tokenId",
          "type": "uint256"
        },
        {
          "indexed": true,
          "internalType": "string",
          "name": "studentIndex",
          "type": "string"
        },
        {
          "indexed": true,
          "internalType": "address",
          "name": "student",
          "type": "address"
        },
        {
          "indexed": false,
          "internalType": "address",
          "name": "issuedBy",
          "type": "address"
        },
        {
          "indexed": false,
          "internalType": "uint256",
          "name": "timestamp",
          "type": "uint256"
        },
        {
          "indexed": false,
          "internalType": "string",
          "name": "firstName",
          "type": "string"
        },
        {
          "indexed": false,
          "internalType": "string",
          "name": "lastName",
          "type": "string"
        }
      ],
      "name": "DiplomaIssued",
      "type": "event"
    },
    {
      "anonymous": false,
      "inputs": [
        {
          "indexed": true,
          "internalType": "uint256",
          "name": "tokenId",
          "type": "uint256"
        },
        {
          "indexed": true,
          "internalType": "string",
          "name": "studentIndex",
          "type": "string"
        },
        {
          "indexed": true,
          "internalType": "address",
          "name": "validatedBy",
          "type": "address"
        },
        {
          "indexed": false,
          "internalType": "uint256",
          "name": "timestamp",
          "type": "uint256"
        }
      ],
      "name": "DiplomaValidated",
      "type": "event"
    },
    {
      "anonymous": false,
      "inputs": [
        {
          "indexed": true,
          "internalType": "uint256",
          "name": "tokenId",
          "type": "uint256"
        },
        {
          "indexed": true,
          "internalType": "address",
          "name": "viewer",
          "type": "address"
        },
        {
          "indexed": false,
          "internalType": "uint256",
          "name": "timestamp",
          "type": "uint256"
        }
      ],
      "name": "DiplomaViewed",
      "type": "event"
    },
    {
      "anonymous": false,
      "inputs": [
        {
          "indexed": true,
          "internalType": "string",
          "name": "studentIndex",
          "type": "string"
        },
        {
          "indexed": true,
          "internalType": "address",
          "name": "queriedBy",
          "type": "address"
        },
        {
          "indexed": false,
          "internalType": "uint256",
          "name": "timestamp",
          "type": "uint256"
        },
        {
          "indexed": false,
          "internalType": "uint256",
          "name": "diplomaCount",
          "type": "uint256"
        }
      ],
      "name": "IndexQueried",
      "type": "event"
    },
    {
      "anonymous": false,
      "inputs": [
        {
          "indexed": false,
          "internalType": "uint256",
          "name": "_tokenId",
          "type": "uint256"
        }
      ],
      "name": "MetadataUpdate",
      "type": "event"
    },
    {
      "anonymous": false,
      "inputs": [
        {
          "indexed": true,
          "internalType": "bytes32",
          "name": "role",
          "type": "bytes32"
        },
        {
          "indexed": true,
          "internalType": "bytes32",
          "name": "previousAdminRole",
          "type": "bytes32"
        },
        {
          "indexed": true,
          "internalType": "bytes32",
          "name": "newAdminRole",
          "type": "bytes32"
        }
      ],
      "name": "RoleAdminChanged",
      "type": "event"
    },
    {
      "anonymous": false,
      "inputs": [
        {
          "indexed": true,
          "internalType": "bytes32",
          "name": "role",
          "type": "bytes32"
        },
        {
          "indexed": true,
          "internalType": "address",
          "name": "account",
          "type": "address"
        },
        {
          "indexed": true,
          "internalType": "address",
          "name": "sender",
          "type": "address"
        }
      ],
      "name": "RoleGranted",
      "type": "event"
    },
    {
      "anonymous": false,
      "inputs": [
        {
          "indexed": true,
          "internalType": "address",
          "name": "account",
          "type": "address"
        },
        {
          "indexed": true,
          "internalType": "bytes32",
          "name": "role",
          "type": "bytes32"
        },
        {
          "indexed": true,
          "internalType": "address",
          "name": "grantedBy",
          "type": "address"
        },
        {
          "indexed": false,
          "internalType": "uint256",
          "name": "timestamp",
          "type": "uint256"
        }
      ],
      "name": "RoleGranted",
      "type": "event"
    },
    {
      "anonymous": false,
      "inputs": [
        {
          "indexed": true,
          "internalType": "bytes32",
          "name": "role",
          "type": "bytes32"
        },
        {
          "indexed": true,
          "internalType": "address",
          "name": "account",
          "type": "address"
        },
        {
          "indexed": true,
          "internalType": "address",
          "name": "sender",
          "type": "address"
        }
      ],
      "name": "RoleRevoked",
      "type": "event"
    },
    {
      "anonymous": false,
      "inputs": [
        {
          "indexed": true,
          "internalType": "address",
          "name": "account",
          "type": "address"
        },
        {
          "indexed": true,
          "internalType": "bytes32",
          "name": "role",
          "type": "bytes32"
        },
        {
          "indexed": true,
          "internalType": "address",
          "name": "revokedBy",
          "type": "address"
        },
        {
          "indexed": false,
          "internalType": "uint256",
          "name": "timestamp",
          "type": "uint256"
        }
      ],
      "name": "RoleRevoked",
      "type": "event"
    },
    {
      "anonymous": false,
      "inputs": [
        {
          "indexed": true,
          "internalType": "address",
          "name": "from",
          "type": "address"
        },
        {
          "indexed": true,
          "internalType": "address",
          "name": "to",
          "type": "address"
        },
        {
          "indexed": true,
          "internalType": "uint256",
          "name": "tokenId",
          "type": "uint256"
        }
      ],
      "name": "Transfer",
      "type": "event"
    },
    {
      "inputs": [],
      "name": "ADMIN_ROLE",
      "outputs": [
        {
          "internalType": "bytes32",
          "name": "",
          "type": "bytes32"
        }
      ],
      "stateMutability": "view",
      "type": "function"
    },
    {
      "inputs": [],
      "name": "DEFAULT_ADMIN_ROLE",
      "outputs": [
        {
          "internalType": "bytes32",
          "name": "",
          "type": "bytes32"
        }
      ],
      "stateMutability": "view",
      "type": "function"
    },
    {
      "inputs": [],
      "name": "STUDENT_SERVICE_ROLE",
      "outputs": [
        {
          "internalType": "bytes32",
          "name": "",
          "type": "bytes32"
        }
      ],
      "stateMutability": "view",
      "type": "function"
    },
    {
      "inputs": [
        {
          "internalType": "address",
          "name": "to",
          "type": "address"
        },
        {
          "internalType": "uint256",
          "name": "tokenId",
          "type": "uint256"
        }
      ],
      "name": "approve",
      "outputs": [],
      "stateMutability": "nonpayable",
      "type": "function"
    },
    {
      "inputs": [
        {
          "internalType": "address",
          "name": "owner",
          "type": "address"
        }
      ],
      "name": "balanceOf",
      "outputs": [
        {
          "internalType": "uint256",
          "name": "",
          "type": "uint256"
        }
      ],
      "stateMutability": "view",
      "type": "function"
    },
    {
      "inputs": [
        {
          "internalType": "uint256",
          "name": "tokenId",
          "type": "uint256"
        }
      ],
      "name": "getApproved",
      "outputs": [
        {
          "internalType": "address",
          "name": "",
          "type": "address"
        }
      ],
      "stateMutability": "view",
      "type": "function"
    },
    {
      "inputs": [
        {
          "internalType": "bytes32",
          "name": "role",
          "type": "bytes32"
        }
      ],
      "name": "getRoleAdmin",
      "outputs": [
        {
          "internalType": "bytes32",
          "name": "",
          "type": "bytes32"
        }
      ],
      "stateMutability": "view",
      "type": "function"
    },
    {
      "inputs": [
        {
          "internalType": "bytes32",
          "name": "role",
          "type": "bytes32"
        },
        {
          "internalType": "address",
          "name": "account",
          "type": "address"
        }
      ],
      "name": "grantRole",
      "outputs": [],
      "stateMutability": "nonpayable",
      "type": "function"
    },
    {
      "inputs": [
        {
          "internalType": "bytes32",
          "name": "role",
          "type": "bytes32"
        },
        {
          "internalType": "address",
          "name": "account",
          "type": "address"
        }
      ],
      "name": "hasRole",
      "outputs": [
        {
          "internalType": "bool",
          "name": "",
          "type": "bool"
        }
      ],
      "stateMutability": "view",
      "type": "function"
    },
    {
      "inputs": [
        {
          "internalType": "address",
          "name": "owner",
          "type": "address"
        },
        {
          "internalType": "address",
          "name": "operator",
          "type": "address"
        }
      ],
      "name": "isApprovedForAll",
      "outputs": [
        {
          "internalType": "bool",
          "name": "",
          "type": "bool"
        }
      ],
      "stateMutability": "view",
      "type": "function"
    },
    {
      "inputs": [],
      "name": "name",
      "outputs": [
        {
          "internalType": "string",
          "name": "",
          "type": "string"
        }
      ],
      "stateMutability": "view",
      "type": "function"
    },
    {
      "inputs": [
        {
          "internalType": "uint256",
          "name": "tokenId",
          "type": "uint256"
        }
      ],
      "name": "ownerOf",
      "outputs": [
        {
          "internalType": "address",
          "name": "",
          "type": "address"
        }
      ],
      "stateMutability": "view",
      "type": "function"
    },
    {
      "inputs": [
        {
          "internalType": "bytes32",
          "name": "role",
          "type": "bytes32"
        },
        {
          "internalType": "address",
          "name": "account",
          "type": "address"
        }
      ],
      "name": "renounceRole",
      "outputs": [],
      "stateMutability": "nonpayable",
      "type": "function"
    },
    {
      "inputs": [
        {
          "internalType": "bytes32",
          "name": "role",
          "type": "bytes32"
        },
        {
          "internalType": "address",
          "name": "account",
          "type": "address"
        }
      ],
      "name": "revokeRole",
      "outputs": [],
      "stateMutability": "nonpayable",
      "type": "function"
    },
    {
      "inputs": [
        {
          "internalType": "address",
          "name": "from",
          "type": "address"
        },
        {
          "internalType": "address",
          "name": "to",
          "type": "address"
        },
        {
          "internalType": "uint256",
          "name": "tokenId",
          "type": "uint256"
        }
      ],
      "name": "safeTransferFrom",
      "outputs": [],
      "stateMutability": "nonpayable",
      "type": "function"
    },
    {
      "inputs": [
        {
          "internalType": "address",
          "name": "from",
          "type": "address"
        },
        {
          "internalType": "address",
          "name": "to",
          "type": "address"
        },
        {
          "internalType": "uint256",
          "name": "tokenId",
          "type": "uint256"
        },
        {
          "internalType": "bytes",
          "name": "data",
          "type": "bytes"
        }
      ],
      "name": "safeTransferFrom",
      "outputs": [],
      "stateMutability": "nonpayable",
      "type": "function"
    },
    {
      "inputs": [
        {
          "internalType": "address",
          "name": "operator",
          "type": "address"
        },
        {
          "internalType": "bool",
          "name": "approved",
          "type": "bool"
        }
      ],
      "name": "setApprovalForAll",
      "outputs": [],
      "stateMutability": "nonpayable",
      "type": "function"
    },
    {
      "inputs": [],
      "name": "symbol",
      "outputs": [
        {
          "internalType": "string",
          "name": "",
          "type": "string"
        }
      ],
      "stateMutability": "view",
      "type": "function"
    },
    {
      "inputs": [
        {
          "internalType": "uint256",
          "name": "tokenId",
          "type": "uint256"
        }
      ],
      "name": "tokenURI",
      "outputs": [
        {
          "internalType": "string",
          "name": "",
          "type": "string"
        }
      ],
      "stateMutability": "view",
      "type": "function"
    },
    {
      "inputs": [
        {
          "internalType": "address",
          "name": "from",
          "type": "address"
        },
        {
          "internalType": "address",
          "name": "to",
          "type": "address"
        },
        {
          "internalType": "uint256",
          "name": "tokenId",
          "type": "uint256"
        }
      ],
      "name": "transferFrom",
      "outputs": [],
      "stateMutability": "nonpayable",
      "type": "function"
    },
    {
      "inputs": [
        {
          "internalType": "address",
          "name": "studentAddress",
          "type": "address"
        },
        {
          "internalType": "string",
          "name": "firstName",
          "type": "string"
        },
        {
          "internalType": "string",
          "name": "lastName",
          "type": "string"
        },
        {
          "internalType": "string",
          "name": "studentIndex",
          "type": "string"
        },
        {
          "internalType": "string",
          "name": "fieldOfStudy",
          "type": "string"
        },
        {
          "internalType": "string",
          "name": "grades",
          "type": "string"
        },
        {
          "internalType": "uint256",
          "name": "credits",
          "type": "uint256"
        },
        {
          "internalType": "uint256",
          "name": "gpa",
          "type": "uint256"
        },
        {
          "internalType": "uint256",
          "name": "graduationDate",
          "type": "uint256"
        },
        {
          "internalType": "string",
          "name": "transcriptData",
          "type": "string"
        },
        {
          "internalType": "string",
          "name": "tokenURI",
          "type": "string"
        }
      ],
      "name": "issueDiploma",
      "outputs": [
        {
          "internalType": "uint256",
          "name": "",
          "type": "uint256"
        }
      ],
      "stateMutability": "nonpayable",
      "type": "function"
    },
    {
      "inputs": [
        {
          "internalType": "uint256",
          "name": "tokenId",
          "type": "uint256"
        },
        {
          "internalType": "string",
          "name": "reason",
          "type": "string"
        }
      ],
      "name": "invalidateDiploma",
      "outputs": [],
      "stateMutability": "nonpayable",
      "type": "function"
    },
    {
      "inputs": [
        {
          "internalType": "uint256",
          "name": "tokenId",
          "type": "uint256"
        }
      ],
      "name": "validateDiploma",
      "outputs": [],
      "stateMutability": "nonpayable",
      "type": "function"
    },
    {
      "inputs": [
        {
          "internalType": "uint256",
          "name": "tokenId",
          "type": "uint256"
        }
      ],
      "name": "getDiploma",
      "outputs": [
        {
          "internalType": "string",
          "name": "firstName",
          "type": "string"
        },
        {
          "internalType": "string",
          "name": "lastName",
          "type": "string"
        },
        {
          "internalType": "string",
          "name": "studentIndex",
          "type": "string"
        },
        {
          "internalType": "string",
          "name": "fieldOfStudy",
          "type": "string"
        },
        {
          "internalType": "string",
          "name": "grades",
          "type": "string"
        },
        {
          "internalType": "uint256",
          "name": "credits",
          "type": "uint256"
        },
        {
          "internalType": "uint256",
          "name": "gpa",
          "type": "uint256"
        },
        {
          "internalType": "uint256",
          "name": "graduationDate",
          "type": "uint256"
        },
        {
          "internalType": "string",
          "name": "transcriptData",
          "type": "string"
        },
        {
          "internalType": "bool",
          "name": "isValid",
          "type": "bool"
        },
        {
          "internalType": "uint256",
          "name": "issuedAt",
          "type": "uint256"
        },
        {
          "internalType": "address",
          "name": "issuedBy",
          "type": "address"
        },
        {
          "internalType": "address",
          "name": "owner",
          "type": "address"
        }
      ],
      "stateMutability": "nonpayable",
      "type": "function"
    },
    {
      "inputs": [
        {
          "internalType": "string",
          "name": "studentIndex",
          "type": "string"
        }
      ],
      "name": "getDiplomasByIndex",
      "outputs": [
        {
          "internalType": "uint256[]",
          "name": "",
          "type": "uint256[]"
        }
      ],
      "stateMutability": "nonpayable",
      "type": "function"
    },
    {
      "inputs": [
        {
          "internalType": "string",
          "name": "studentIndex",
          "type": "string"
        }
      ],
      "name": "getValidDiplomaByIndex",
      "outputs": [
        {
          "internalType": "uint256",
          "name": "",
          "type": "uint256"
        }
      ],
      "stateMutability": "view",
      "type": "function"
    },
    {
      "inputs": [
        {
          "internalType": "address",
          "name": "studentAddress",
          "type": "address"
        }
      ],
      "name": "getStudentIndices",
      "outputs": [
        {
          "internalType": "string[]",
          "name": "",
          "type": "string[]"
        }
      ],
      "stateMutability": "view",
      "type": "function"
    },
    {
      "inputs": [
        {
          "internalType": "uint256",
          "name": "tokenId",
          "type": "uint256"
        }
      ],
      "name": "isValid",
      "outputs": [
        {
          "internalType": "bool",
          "name": "",
          "type": "bool"
        }
      ],
      "stateMutability": "view",
      "type": "function"
    },
    {
      "inputs": [],
      "name": "totalSupply",
      "outputs": [
        {
          "internalType": "uint256",
          "name": "",
          "type": "uint256"
        }
      ],
      "stateMutability": "view",
      "type": "function"
    },
    {
      "inputs": [
        {
          "internalType": "address",
          "name": "account",
          "type": "address"
        },
        {
          "internalType": "bytes32",
          "name": "role",
          "type": "bytes32"
        }
      ],
      "name": "grantRoleWithLog",
      "outputs": [],
      "stateMutability": "nonpayable",
      "type": "function"
    },
    {
      "inputs": [
        {
          "internalType": "address",
          "name": "account",
          "type": "address"
        },
        {
          "internalType": "bytes32",
          "name": "role",
          "type": "bytes32"
        }
      ],
      "name": "revokeRoleWithLog",
      "outputs": [],
      "stateMutability": "nonpayable",
      "type": "function"
    },
    {
      "inputs": [
        {
          "internalType": "address",
          "name": "account",
          "type": "address"
        }
      ],
      "name": "isAdmin",
      "outputs": [
        {
          "internalType": "bool",
          "name": "",
          "type": "bool"
        }
      ],
      "stateMutability": "view",
      "type": "function"
    },
    {
      "inputs": [
        {
          "internalType": "address",
          "name": "account",
          "type": "address"
        }
      ],
      "name": "isStudentService",
      "outputs": [
        {
          "internalType": "bool",
          "name": "",
          "type": "bool"
        }
      ],
      "stateMutability": "view",
      "type": "function"
    },
    {
      "inputs": [
        {
          "internalType": "bytes4",
          "name": "interfaceId",
          "type": "bytes4"
        }
      ],
      "name": "supportsInterface",
      "outputs": [
        {
          "internalType": "bool",
          "name": "",
          "type": "bool"
        }
      ],
      "stateMutability": "view",
      "type": "function"
    }
  ],
  "bytecode": "0x608034620003ea576200307790601f906001600160401b0390601f1938859003848101821683019084821184831017620003d65780849160409889948552833981010312620003ea5762000053826200040e565b916200006360208092016200040e565b936200006e620003ee565b956012875271556e6976657273697479204469706c6f6d6160701b8388015262000097620003ee565b60078152664449504c4f4d4160c81b84820152875194838611620003d6575f9586549960019a8b81811c91168015620003cb575b88821014620003b75790818684931162000364575b508790868311600114620002fb578992620002ef575b50505f19600383901b1c1916908a1b1786555b8151938411620002db5788548981811c91168015620002d0575b86821014620002bc5783811162000274575b50849284116001146200020257509180620001a8979694928694620001a29792620001f6575b50505f19600383901b1c191690881b1787555b818052600781528782206001600160a01b0384168084529082528883205490919060ff1615620001bd575b50505062000423565b62000423565b6008540160085551612b949081620004c38239f35b828052600781528883208284529052878220805460ff19168817905533915f80516020620030578339815191528180a45f808062000199565b015190505f806200015b565b9183928994169184875285872092875b8181106200025c575091620001a29795939185620001a89b9a9896941062000243575b505050811b0187556200016e565b01515f1960f88460031b161c191690555f808062000235565b8284015185558b969094019392870192870162000212565b8987528587208480870160051c820192888810620002b2575b0160051c01908a905b828110620002a657505062000135565b888155018a9062000296565b925081926200028d565b634e487b7160e01b87526022600452602487fd5b90607f169062000123565b634e487b7160e01b86526041600452602486fd5b015190505f80620000f6565b90848d9416918a8052898b20928b5b8b8282106200034457505084116200032b575b505050811b01865562000109565b01515f1960f88460031b161c191690555f80806200031d565b91929395968291958786015181550195019301908e95949392916200030a565b9091508880528789208680850160051c8201928a8610620003ad575b918e91869594930160051c01915b8281106200039e575050620000e0565b8b81558594508e91016200038e565b9250819262000380565b634e487b7160e01b89526022600452602489fd5b90607f1690620000cb565b634e487b7160e01b5f52604160045260245ffd5b5f80fd5b60408051919082016001600160401b03811183821017620003d657604052565b51906001600160a01b0382168203620003ea57565b6001600160a01b03165f8181527f062d7b73ffa56538d5b665ac86ca4ae5220c37d0fc2bf000590dbc136d01853660205260408120549091907f25038fade3d1c5d2bc003d05c112c80253775f0c60982ae86fc4d7ea1c45ef829060ff16156200048c57505050565b80835260076020526040832082845260205260408320600160ff198254161790555f8051602062003057833981519152339380a456fe6080806040526004361015610012575f80fd5b5f3560e01c90816301ffc9a714611bd45750806306fdde0314611b34578063081812fc14611b16578063095ea7b3146119a257806318160ddd146119795780631922a4231461186b57806323b872dd14611847578063248a9ca31461181a57806324d7806c146117b95780632f2ff15d1461171157806333ce6cda146115fd57806336568abe1461156b57806342842e0e146115395780635b6ae2fd146114595780636352211e1461142957806370a082311461139457806375b238fc1461120957806385151cf81461133357806391d14854146112ea57806395d89b411461120e578063a217fddf14611209578063a22cb46514611132578063a3979eea1461087f578063a5dbc60414610780578063b11528471461054d578063b88d4fde146104c8578063c1786a781461048e578063c87b56dd1461041c578063d547741f146103dd578063d67146b5146102fe578063e985e9c5146102ac578063f47ceb621461026a578063f577a500146102165763ff40e81a14610192575f80fd5b34610212576040366003190112610212576101ab611cb9565b6024356101b6611e16565b805f5260076020526101ce600160405f200154611fe1565b6101d882826120e0565b60405142815233926001600160a01b0316907ff64ab3d963a369dba7573ffa6529c4031b43c5b8a71f993b6993b74c80c329eb90602090a4005b5f80fd5b34610212576020366003190112610212576004355f8181526002602052604090205461024c906001600160a01b03161515612976565b5f526009602052602060ff600960405f200154166040519015158152f35b34610212576020366003190112610212576004356001600160401b038111610212576102a461029f6020923690600401611da9565b612a3f565b604051908152f35b34610212576040366003190112610212576102c5611cb9565b6102cd611ccf565b9060018060a01b038091165f52600560205260405f2091165f52602052602060ff60405f2054166040519015158152f35b346102125760203660031901126102125760043561031a611e16565b5f8181526002602052604090205461033c906001600160a01b03161515612976565b805f52600960205260ff600960405f200154166103a857805f526009602052610379600260405f2060098101600160ff19825416179055016129bb565b604051914283527f7ef3cb2097be898875261198bb08f8be770b8c223c26bcebc6da3ae865b7f8f160203394a4005b60405162461bcd60e51b815260206004820152600d60248201526c105b1c9958591e481d985b1a59609a1b6044820152606490fd5b346102125760403660031901126102125761041a6004356103fc611ccf565b90805f526007602052610415600160405f200154611fe1565b6120e0565b005b34610212576020366003190112610212576004355f81815260026020526040902054610452906001600160a01b03161515612155565b5f52600660205261048a61046860405f206121fb565b5f60405161047581611d01565b52604051918291602083526020830190611c94565b0390f35b34610212575f3660031901126102125760206040517f25038fade3d1c5d2bc003d05c112c80253775f0c60982ae86fc4d7ea1c45ef828152f35b34610212576080366003190112610212576104e1611cb9565b6104e9611ccf565b90606435906044356001600160401b03831161021257366023840112156102125761041a93610525610548943690602481600401359101611d73565b9261053861053384336123ad565b6122d8565b610543838383612471565b6126a1565b61238d565b34610212576020366003190112610212576004355f908152600260205260409020546001600160a01b0316151561058390612976565b6004355f52600960205260405f206040519061059e82611ce5565b6105a7816121fb565b82526105b5600182016121fb565b60208301526105c6600282016121fb565b60408301526105d7600382016121fb565b60608301526105e8600482016121fb565b6080830152600581015460a0830152600681015460c0830152600781015460e0830152610617600882016121fb565b610100830152600981015460ff161515610120830152600a810154610140830152600b01546001600160a01b03166101608201526040514281523390600435907fe9d82fd4fa755c587e0949000716ec13df20892929195552662149a2de4e6c3c90602090a380516020820151916040810151606082015160808301519260a081015160c08201519060e08301516101008401519261012085015115159761014086015195600160a01b6001900390610160015116966004356106d9906121a1565b986040519c8d9c8d6101a090818152016106f291611c94565b8d810360208f015261070391611c94565b8c810360408e015261071491611c94565b8b810360608d015261072591611c94565b8a810360808c015261073691611c94565b9260a08a015260c089015260e088015286810361010088015261075891611c94565b6101208601949094526101408501526101608401526001600160a01b03166101808301520390f35b3461021257602080600319360112610212576001600160a01b036107a2611cb9565b165f52600b815260405f208054906001600160401b03821161086b578290604051926107d3838260051b0185611d37565b80845282840180925f52835f205f915b8383106108495750505050604051918083019381845251809452604083019360408160051b85010192915f955b82871061081d5785850386f35b909192938280610839600193603f198a82030186528851611c94565b9601920196019592919092610810565b600186819261085a859a999a6121fb565b8152019201920191909594956107e3565b634e487b7160e01b5f52604160045260245ffd5b346102125761016036600319011261021257610899611cb9565b6001600160401b03602435818111610212576108b9903690600401611da9565b604435828111610212576108d1903690600401611da9565b91606435818111610212576108ea903690600401611da9565b9260843582811161021257610903903690600401611da9565b9460a4358381116102125761091c903690600401611da9565b936101243584811161021257610936903690600401611da9565b936101443590811161021257610950903690600401611da9565b335f9081527f062d7b73ffa56538d5b665ac86ca4ae5220c37d0fc2bf000590dbc136d018536602052604090205490979060ff1615610f7e576001600160a01b03831615610f3957865115610f0357815115610ec857835115610e8e576008549460018601600855604051602081816109cf8c83815193849201611c73565b8101600a815203019020965f5b8854811015610aae576109ef818a6127ed565b90549060031b1c805f5260098060205260405f2001805460ff8116610a36575b5050505f198114610a22576001016109dc565b634e487b7160e01b5f52601160045260245ffd5b60ff19169055610a458b612802565b6040519142835260406020840152601960408401527f53757065727365646564206279206e6577206469706c6f6d610000000000000060608401527fa8e4df9109384affe672c0c2294014d95d2bb1c32bc0c9ad00cd5f7ce6c806fe60803394a48b8080610a0f565b5088975089610b77610548604051610ac581611d01565b5f8082528b815260026020526040902054610aec906001600160a01b031615155b1561292a565b5f8b815260026020526040902054610b0e906001600160a01b03161515610ae6565b6001600160a01b0389165f818152600360209081526040808320805460010190558e83526002909152812080546001600160a01b031916831790558c91907fddf252ad1be2c89b69c2b068fc378daa952ba7f163c4a11628f55a4df523b3ef8180a48a89612585565b5f888152600260205260409020546001600160a01b031615610e3257610ba890885f52600660205260405f20612822565b7ff8e1a15aba9398e019f0b49df1a4fde98ee17ae345cb5f6b5e2c27f5033e8ce76020604051898152a160405192610bdf84611ce5565b8484528660208501528860408501526060840152608083015260c43560a083015260e43560c08301526101043560e083015261010082015260016101208201524261014082015233610160820152845f526009602052600b60405f20610c46835182612822565b610c57602084015160018301612822565b610c68604084015160028301612822565b610c79606084015160038301612822565b610c8a608084015160048301612822565b60a0830151600582015560c0830151600682015560e08301516007820155610cba61010084015160088301612822565b610cda6101208401511515600983019060ff801983541691151516179055565b610140830151600a820155019061016060018060a01b03910151166bffffffffffffffffffffffff60a01b8254161790556040516020818751610d208183858c01611c73565b8101600a81520301902080549068010000000000000000918281101561086b57610d4f916001820181556127ed565b81545f1960039290921b91821b19169087901b1790556001600160a01b0383165f908152600b602052604090208054909181101561086b57610d96916001820181556127ed565b959095610e1f57610dfb8592610e14610ddb84610dd67f81dd67646bcc9e0993c50f838311bbadb6cff9795b51d729e7d66b39146a099c9660209c612822565b612802565b95604051938493338552428c860152608060408601526080850190611c94565b83810360608501526001600160a01b0390911697611c94565b0390a4604051908152f35b634e487b7160e01b5f525f60045260245ffd5b60405162461bcd60e51b815260206004820152602e60248201527f45524337323155524953746f726167653a2055524920736574206f66206e6f6e60448201526d32bc34b9ba32b73a103a37b5b2b760911b6064820152608490fd5b60405162461bcd60e51b815260206004820152601260248201527113185cdd081b985b59481c995c5d5a5c995960721b6044820152606490fd5b60405162461bcd60e51b8152602060048201526013602482015272119a5c9cdd081b985b59481c995c5d5a5c9959606a1b6044820152606490fd5b60405162461bcd60e51b815260206004820152600e60248201526d125b99195e081c995c5d5a5c995960921b6044820152606490fd5b60405162461bcd60e51b815260206004820152601760248201527f496e76616c69642073747564656e7420616464726573730000000000000000006044820152606490fd5b610f8733612743565b604051907f25038fade3d1c5d2bc003d05c112c80253775f0c60982ae86fc4d7ea1c45ef82610fb583611d1c565b604283526020830190606036833783511561111e5760308253835160019081101561111e57607860218601536041905b8082116110da57505061109657604861106392611072926110929560405195869376020b1b1b2b9b9a1b7b73a3937b61d1030b1b1b7bab73a1604d1b602086015261103a815180926020603789019101611c73565b8401917001034b99036b4b9b9b4b733903937b6329607d1b603784015251809386840190611c73565b01036028810184520182611d37565b60405162461bcd60e51b8152602060048201529182916024830190611c94565b0390fd5b606460405162461bcd60e51b815260206004820152602060248201527f537472696e67733a20686578206c656e67746820696e73756666696369656e746044820152fd5b9091600f811690601082101561111e57611118916f181899199a1a9b1b9c1cb0b131b232b360811b901a61110e8589612726565b5360041c92612737565b90610fe5565b634e487b7160e01b5f52603260045260245ffd5b346102125760403660031901126102125761114b611cb9565b6024359081151590818303610212576001600160a01b0316913383146111c45761119690335f52600560205260405f20845f5260205260405f209060ff801983541691151516179055565b6040519081527f17307eab39ab6107e8899845ad3d59bd9653f200f220920489ca2b5937696c3160203392a3005b60405162461bcd60e51b815260206004820152601960248201527f4552433732313a20617070726f766520746f2063616c6c6572000000000000006044820152606490fd5b611dfc565b34610212575f366003190112610212576040515f6001805490611230826121c3565b808552918181169081156112c3575060011461126b575b61048a8461125781860382611d37565b604051918291602083526020830190611c94565b5f81815292507fb10e2d527612073b26eecdfd717e6a320cf44b4afac2b0732d9fcbe2b7fa0cf65b8284106112ab57505050810160200161125782611247565b80546020858701810191909152909301928101611293565b60ff191660208087019190915292151560051b850190920192506112579150839050611247565b3461021257604036600319011261021257611303611ccf565b6004355f52600760205260405f209060018060a01b03165f52602052602060ff60405f2054166040519015158152f35b346102125760203660031901126102125761134c611cb9565b6001600160a01b03165f9081527f062d7b73ffa56538d5b665ac86ca4ae5220c37d0fc2bf000590dbc136d018536602090815260409182902054915160ff9092161515825290f35b34610212576020366003190112610212576001600160a01b036113b5611cb9565b1680156113d2575f526003602052602060405f2054604051908152f35b60405162461bcd60e51b815260206004820152602960248201527f4552433732313a2061646472657373207a65726f206973206e6f7420612076616044820152683634b21037bbb732b960b91b6064820152608490fd5b346102125760203660031901126102125760206114476004356121a1565b6040516001600160a01b039091168152f35b3461021257604036600319011261021257611472611cb9565b60243561147d611e16565b805f5260209160078352611497600160405f200154611fe1565b5f8281526007845260408082206001600160a01b0390931680835292855290205460ff16156114ee575b7facd4db3d9b2eaee6420ef271ff250411c88f50597992bec2fd048d4b2c6d25c9604051934285523394a4005b815f526007835260405f20815f52835260405f20600160ff198254161790553381837f2f8788117e7eff1d82e926ec794901d17c78024a50270940304540a733656f0d5f80a46114c1565b346102125761041a61054861154d36611dc7565b906040519261155b84611d01565b5f845261053861053384336123ad565b3461021257604036600319011261021257611584611ccf565b336001600160a01b038216036115a05761041a906004356120e0565b60405162461bcd60e51b815260206004820152602f60248201527f416363657373436f6e74726f6c3a2063616e206f6e6c792072656e6f756e636560448201526e103937b632b9903337b91039b2b63360891b6064820152608490fd5b34610212576040366003190112610212576004356024356001600160401b03811161021257611630903690600401611da9565b90611639611e16565b5f8181526002602052604090205461165b906001600160a01b03161515612976565b805f52600960205260ff600960405f20015416156116da57805f526009602052611696600260405f206009810160ff198154169055016129bb565b907fa8e4df9109384affe672c0c2294014d95d2bb1c32bc0c9ad00cd5f7ce6c806fe60405142815260406020820152806116d533966040830190611c94565b0390a4005b60405162461bcd60e51b815260206004820152600f60248201526e105b1c9958591e481a5b9d985b1a59608a1b6044820152606490fd5b346102125760403660031901126102125760043561172d611ccf565b815f526007602052611745600160405f200154611fe1565b815f52600760205260405f209060018060a01b031690815f5260205260ff60405f2054161561177057005b815f52600760205260405f20815f5260205260405f20600160ff1982541617905533917f2f8788117e7eff1d82e926ec794901d17c78024a50270940304540a733656f0d5f80a4005b34610212576020366003190112610212576117d2611cb9565b6001600160a01b03165f9081527f6d5257204ebe7d88fd91ae87941cb2dd9d8062b64ae5a2bd2d28ec40b9fbf6df602090815260409182902054915160ff9092161515825290f35b34610212576020366003190112610212576004355f5260076020526020600160405f200154604051908152f35b346102125761041a61185836611dc7565b9161186661053384336123ad565b612471565b3461021257602080600319360112610212576004356001600160401b0381116102125761189c903690600401611da9565b604051828183516118b08183858801611c73565b8101600a815203019020604051918284835491828152019081935f52855f20905f5b878282106119655750505050836118ea910384611d37565b6118f5835191612802565b60405191428352858301527fc594ebc66a1a2c26159a3c4ac0f8d8e1fd0ac45db70c0009ee57e51a21ed8a4460403393a360405192839281840190828552518091526040840192915f5b82811061194e57505050500390f35b83518552869550938101939281019260010161193f565b8354855290930192600192830192016118d2565b34610212575f366003190112610212576008545f198101908111610a2257602090604051908152f35b34610212576040366003190112610212576119bb611cb9565b602435906001600160a01b0380806119d2856121a1565b16921691808314611ac757803314908115611aa6575b5015611a3b575f83815260046020526040902080546001600160a01b03191683179055611a14836121a1565b167f8c5be1e5ebec7d5bd14f71427d1e84f3dd0314c0f7b2291e5b200ac8c7c3b9255f80a4005b60405162461bcd60e51b815260206004820152603d60248201527f4552433732313a20617070726f76652063616c6c6572206973206e6f7420746f60448201527f6b656e206f776e6572206f7220617070726f76656420666f7220616c6c0000006064820152608490fd5b90505f52600560205260405f20335f5260205260ff60405f205416846119e8565b60405162461bcd60e51b815260206004820152602160248201527f4552433732313a20617070726f76616c20746f2063757272656e74206f776e656044820152603960f91b6064820152608490fd5b3461021257602036600319011261021257602061144760043561229c565b34610212575f366003190112610212576040515f8054611b53816121c3565b808452906001908181169081156112c35750600114611b7c5761048a8461125781860382611d37565b5f80805292507f290decd9548b62a8d60345a988386fc84ba6bc95484008f6362f93160ef3e5635b828410611bbc57505050810160200161125782611247565b80546020858701810191909152909301928101611ba4565b34610212576020366003190112610212576004359063ffffffff60e01b821680920361021257602091637965db0b60e01b8114908115611c16575b5015158152f35b632483248360e11b811491508115611c30575b5083611c0f565b6380ac58cd60e01b811491508115611c62575b8115611c51575b5083611c29565b6301ffc9a760e01b14905083611c4a565b635b5e139f60e01b81149150611c43565b5f5b838110611c845750505f910152565b8181015183820152602001611c75565b90602091611cad81518092818552858086019101611c73565b601f01601f1916010190565b600435906001600160a01b038216820361021257565b602435906001600160a01b038216820361021257565b61018081019081106001600160401b0382111761086b57604052565b602081019081106001600160401b0382111761086b57604052565b608081019081106001600160401b0382111761086b57604052565b90601f801991011681019081106001600160401b0382111761086b57604052565b6001600160401b03811161086b57601f01601f191660200190565b929192611d7f82611d58565b91611d8d6040519384611d37565b829481845281830111610212578281602093845f960137010152565b9080601f8301121561021257816020611dc493359101611d73565b90565b6060906003190112610212576001600160a01b0390600435828116810361021257916024359081168103610212579060443590565b34610212575f3660031901126102125760206040515f8152f35b335f9081527f6d5257204ebe7d88fd91ae87941cb2dd9d8062b64ae5a2bd2d28ec40b9fbf6df602090815260408083205490929060ff1615611e5757505050565b611e6033612743565b9080845190611e6e82611d1c565b60428252848201926060368537825115611fcd57603084538251600190811015611fb95790607860218501536041915b808311611f5f57505050611f1d576048611092938693611f0193611ef2985198899376020b1b1b2b9b9a1b7b73a3937b61d1030b1b1b7bab73a1604d1b8a86015261103a815180928c603789019101611c73565b01036028810187520185611d37565b5192839262461bcd60e51b845260048401526024830190611c94565b60648486519062461bcd60e51b825280600483015260248201527f537472696e67733a20686578206c656e67746820696e73756666696369656e746044820152fd5b909192600f81166010811015611fa557611f9e91906f181899199a1a9b1b9c1cb0b131b232b360811b901a611f948688612726565b5360041c93612737565b9190611e9e565b634e487b7160e01b84526032600452602484fd5b634e487b7160e01b82526032600452602482fd5b634e487b7160e01b81526032600452602490fd5b5f9080825260209060078252604092838120338252835260ff84822054161561200a5750505050565b61201333612743565b9184519061202082611d1c565b60428252848201926060368537825115611fcd57603084538251600190811015611fb95790607860218501536041915b8083116120a457505050611f1d576048611092938693611f0193611ef2985198899376020b1b1b2b9b9a1b7b73a3937b61d1030b1b1b7bab73a1604d1b8a86015261103a815180928c603789019101611c73565b909192600f81166010811015611fa5576120d991906f181899199a1a9b1b9c1cb0b131b232b360811b901a611f948688612726565b9190612050565b905f918083526007602052604083209160018060a01b03169182845260205260ff60408420541661211057505050565b8083526007602052604083208284526020526040832060ff1981541690557ff6391f5c32d9c69d2a47ea670b442974b53935d1edc7fd64eb21e047a839171b339380a4565b1561215c57565b60405162461bcd60e51b815260206004820152601860248201527f4552433732313a20696e76616c696420746f6b656e20494400000000000000006044820152606490fd5b5f908152600260205260409020546001600160a01b0316611dc4811515612155565b90600182811c921680156121f1575b60208310146121dd57565b634e487b7160e01b5f52602260045260245ffd5b91607f16916121d2565b9060405191825f82549261220e846121c3565b9081845260019485811690815f146122795750600114612239575b505061223792500383611d37565b565b909391505f52602090815f20935f915b81831061226157505061223793508201015f80612229565b85548884018501529485019487945091830191612249565b91505061223794506020925060ff191682840152151560051b8201015f80612229565b5f818152600260205260409020546122be906001600160a01b03161515612155565b5f908152600460205260409020546001600160a01b031690565b156122df57565b60405162461bcd60e51b815260206004820152602d60248201527f4552433732313a2063616c6c6572206973206e6f7420746f6b656e206f776e6560448201526c1c881bdc88185c1c1c9bdd9959609a1b6064820152608490fd5b60809060208152603260208201527f4552433732313a207472616e7366657220746f206e6f6e20455243373231526560408201527131b2b4bb32b91034b6b83632b6b2b73a32b960711b60608201520190565b1561239457565b60405162461bcd60e51b8152806110926004820161233a565b906001600160a01b0380806123c1846121a1565b169316918383149384156123f4575b5083156123de575b50505090565b6123ea9192935061229c565b16145f80806123d8565b9093505f52600560205260405f20825f5260205260ff60405f205416925f6123d0565b1561241e57565b60405162461bcd60e51b815260206004820152602560248201527f4552433732313a207472616e736665722066726f6d20696e636f72726563742060448201526437bbb732b960d91b6064820152608490fd5b906124999161247f846121a1565b6001600160a01b0393918416928492909183168414612417565b1691821561253457816124b6916124af866121a1565b1614612417565b7fddf252ad1be2c89b69c2b068fc378daa952ba7f163c4a11628f55a4df523b3ef5f8481526004602052604081206bffffffffffffffffffffffff60a01b908181541690558382526003602052604082205f1981540190558482526040822060018154019055858252600260205284604083209182541617905580a4565b60405162461bcd60e51b8152602060048201526024808201527f4552433732313a207472616e7366657220746f20746865207a65726f206164646044820152637265737360e01b6064820152608490fd5b91929091803b15612698576125d1936040519081630a85bd0160e11b938482523360048301525f9687602484015260448301526080606483015281878160209a8b966084830190611c94565b03926001600160a01b03165af1849181612654575b50612643575050503d5f1461263b573d6125ff81611d58565b9061260d6040519283611d37565b81528091833d92013e5b805191826126385760405162461bcd60e51b8152806110926004820161233a565b01fd5b506060612617565b6001600160e01b0319161492509050565b9091508581813d8311612691575b61266c8183611d37565b8101031261268d57516001600160e01b03198116810361268d57905f6125e6565b8480fd5b503d612662565b50915050600190565b92939190803b1561271c576126f3946040518092630a85bd0160e11b9485835233600484015260018060a01b03809816602484015260448301526080606483015281806020998a956084830190611c94565b03915f988991165af18491816126545750612643575050503d5f1461263b573d6125ff81611d58565b5050915050600190565b90815181101561111e570160200190565b8015610a22575f190190565b60405190606082018281106001600160401b0382111761086b57604052602a825260208201604036823782511561111e5760309053815160019081101561111e57607860218401536029905b80821161279f5750506110965790565b9091600f81169060108210156127d9576127d3916f181899199a1a9b1b9c1cb0b131b232b360811b901a61110e8587612726565b9061278f565b60245f634e487b7160e01b81526032600452fd5b805482101561111e575f5260205f2001905f90565b61281a90602060405192828480945193849201611c73565b810103902090565b91909182516001600160401b03811161086b5761283f82546121c3565b601f81116128e3575b50602080601f83116001146128835750819293945f92612878575b50508160011b915f199060031b1c1916179055565b015190505f80612863565b90601f19831695845f52825f20925f905b8882106128cb575050836001959697106128b3575b505050811b019055565b01515f1960f88460031b161c191690555f80806128a9565b80600185968294968601518155019501930190612894565b5f83815260208120601f840160051c81019260208510612920575b601f0160051c01915b828110612915575050612848565b818155600101612907565b90925082906128fe565b1561293157565b60405162461bcd60e51b815260206004820152601c60248201527f4552433732313a20746f6b656e20616c7265616479206d696e746564000000006044820152606490fd5b1561297d57565b60405162461bcd60e51b8152602060048201526016602482015275111a5c1b1bdb5848191bd95cc81b9bdd08195e1a5cdd60521b6044820152606490fd5b60405180915f9080546129cd816121c3565b91600191808316908115612a2657506001146129ed575b50505003902090565b909192505f52602090815f20905f915b848310612a12575050505081015f80806129e4565b8054878401528695509183019181016129fd565b60ff1916865250505080151502820190505f80806129e4565b604080518281809451612a588160209788809601611c73565b8101600a81520301902092815193848585835492838152015f93845286842092845b88828210612b4857505050612a9192500386611d37565b8451805b612ad657835162461bcd60e51b8152600481018690526016602482015275139bc81d985b1a5908191a5c1b1bdb5848199bdd5b9960521b6044820152606490fd5b5f198101818111612b34578651811015612b205760051b86018501518083526009808752858420015460ff16612b165750612b1090612737565b80612a95565b9450505092505090565b634e487b7160e01b83526032600452602483fd5b634e487b7160e01b83526011600452602483fd5b855484526001958601958b955093019201612a7a56fea26469706673582212202d9f29332539456c81a3dbe2bd4e567321a1f343a7a49ac6d18f3a1a56ad512b64736f6c634300081400332f8788117e7eff1d82e926ec794901d17c78024a50270940304540a733656f0d",
  "immutableReferences": {},
  "source": "// SPDX-License-Identifier: MIT\r\npragma solidity ^0.8.20;\r\n\r\nimport \"@openzeppelin/contracts/token/ERC721/extensions/ERC721URIStorage.sol\";\r\nimport \"@openzeppelin/contracts/access/AccessControl.sol\";\r\nimport \"@openzeppelin/contracts/utils/Counters.sol\";\r\n\r\n/**\r\n * @title UniversityDiplomaSystem\r\n * @dev NFT-based diploma system with role-based access control\r\n * \r\n * Features:\r\n * - Auto-incrementing token IDs (independent of student index)\r\n * - Multiple diplomas per student index (index is NOT unique)\r\n * - Automatic invalidation of old diplomas when new one is issued\r\n * - Role-based access: Admin, Student Service, Student\r\n * - Comprehensive event logging for all operations\r\n */\r\ncontract UniversityDiplomaSystem is ERC721URIStorage, AccessControl {\r\n    using Counters for Counters.Counter;\r\n\r\n    // ============ Role Definitions ============\r\n    bytes32 public constant ADMIN_ROLE = DEFAULT_ADMIN_ROLE;\r\n    bytes32 public constant STUDENT_SERVICE_ROLE = keccak256(\"STUDENT_SERVICE_ROLE\");\r\n\r\n    // ============ State Variables ============\r\n    Counters.Counter private _tokenIdCounter;\r\n\r\n    // Diploma data structure\r\n    struct Diploma {\r\n        string firstName;\r\n        string lastName;\r\n        string studentIndex;        // NOT unique - can repeat\r\n        string fieldOfStudy;\r\n        string grades;              // JSON string of grades\r\n        uint256 credits;\r\n        uint256 gpa;                // GPA * 100 (e.g., 850 = 8.50)\r\n        uint256 graduationDate;     // Unix timestamp\r\n        string transcriptData;      // JSON string of transcript\r\n        bool isValid;\r\n        uint256 issuedAt;\r\n        address issuedBy;\r\n    }\r\n\r\n    // Mappings\r\n    mapping(uint256 => Diploma) private _diplomas;\r\n    mapping(string => uint256[]) private _indexToDiplomaIds;  // index -> array of tokenIds\r\n    mapping(address => string[]) private _studentToIndices;    // student wallet -> indices\r\n\r\n    // ============ Events for Logging ============\r\n    event DiplomaIssued(\r\n        uint256 indexed tokenId,\r\n        string indexed studentIndex,\r\n        address indexed student,\r\n        address issuedBy,\r\n        uint256 timestamp,\r\n        string firstName,\r\n        string lastName\r\n    );\r\n\r\n    event DiplomaInvalidated(\r\n        uint256 indexed tokenId,\r\n        string indexed studentIndex,\r\n        address indexed invalidatedBy,\r\n        uint256 timestamp,\r\n        string reason\r\n    );\r\n\r\n    event DiplomaValidated(\r\n        uint256 indexed tokenId,\r\n        string indexed studentIndex,\r\n        address indexed validatedBy,\r\n        uint256 timestamp\r\n    );\r\n\r\n    event RoleGranted(\r\n        address indexed account,\r\n        bytes32 indexed role,\r\n        address indexed grantedBy,\r\n        uint256 timestamp\r\n    );\r\n\r\n    event RoleRevoked(\r\n        address indexed account,\r\n        bytes32 indexed role,\r\n        address indexed revokedBy,\r\n        uint256 timestamp\r\n    );\r\n\r\n    event DiplomaViewed(\r\n        uint256 indexed tokenId,\r\n        address indexed viewer,\r\n        uint256 timestamp\r\n    );\r\n\r\n    event IndexQueried(\r\n        string indexed studentIndex,\r\n        address indexed queriedBy,\r\n        uint256 timestamp,\r\n        uint256 diplomaCount\r\n    );\r\n\r\n    // ============ Constructor ============\r\n    constructor(\r\n        address adminAddress,\r\n        address studentServiceAddress\r\n    ) ERC721(\"University Diploma\", \"DIPLOMA\") {\r\n        // Grant roles\r\n        _grantRole(ADMIN_ROLE, adminAddress);\r\n        _grantRole(STUDENT_SERVICE_ROLE, adminAddress);\r\n        _grantRole(STUDENT_SERVICE_ROLE, studentServiceAddress);\r\n        \r\n        // Start token counter at 1\r\n        _tokenIdCounter.increment();\r\n    }\r\n\r\n    // ============ Core Functions ============\r\n\r\n    /**\r\n     * @dev Issue a new diploma NFT\r\n     * @notice Automatically invalidates previous diplomas with same index\r\n     * Requirements:\r\n     * - Caller must have STUDENT_SERVICE_ROLE\r\n     * - All required fields must be provided\r\n     */\r\n    function issueDiploma(\r\n        address studentAddress,\r\n        string memory firstName,\r\n        string memory lastName,\r\n        string memory studentIndex,\r\n        string memory fieldOfStudy,\r\n        string memory grades,\r\n        uint256 credits,\r\n        uint256 gpa,\r\n        uint256 graduationDate,\r\n        string memory transcriptData,\r\n        string memory tokenURI\r\n    ) external onlyRole(STUDENT_SERVICE_ROLE) returns (uint256) {\r\n        require(studentAddress != address(0), \"Invalid student address\");\r\n        require(bytes(studentIndex).length > 0, \"Index required\");\r\n        require(bytes(firstName).length > 0, \"First name required\");\r\n        require(bytes(lastName).length > 0, \"Last name required\");\r\n\r\n        // Get current token ID and increment for next use\r\n        uint256 tokenId = _tokenIdCounter.current();\r\n        _tokenIdCounter.increment();\r\n\r\n        // Invalidate all previous diplomas with same index\r\n        uint256[] storage existingDiplomas = _indexToDiplomaIds[studentIndex];\r\n        for (uint256 i = 0; i < existingDiplomas.length; i++) {\r\n            uint256 existingTokenId = existingDiplomas[i];\r\n            if (_diplomas[existingTokenId].isValid) {\r\n                _diplomas[existingTokenId].isValid = false;\r\n                \r\n                emit DiplomaInvalidated(\r\n                    existingTokenId,\r\n                    studentIndex,\r\n                    msg.sender,\r\n                    block.timestamp,\r\n                    \"Superseded by new diploma\"\r\n                );\r\n            }\r\n        }\r\n\r\n        // Mint NFT\r\n        _safeMint(studentAddress, tokenId);\r\n        _setTokenURI(tokenId, tokenURI);\r\n\r\n        // Store diploma data\r\n        _diplomas[tokenId] = Diploma({\r\n            firstName: firstName,\r\n            lastName: lastName,\r\n            studentIndex: studentIndex,\r\n            fieldOfStudy: fieldOfStudy,\r\n            grades: grades,\r\n            credits: credits,\r\n            gpa: gpa,\r\n            graduationDate: graduationDate,\r\n            transcriptData: transcriptData,\r\n            isValid: true,\r\n            issuedAt: block.timestamp,\r\n            issuedBy: msg.sender\r\n        });\r\n\r\n        // Add to index mapping\r\n        _indexToDiplomaIds[studentIndex].push(tokenId);\r\n        \r\n        // Add to student indices\r\n        _studentToIndices[studentAddress].push(studentIndex);\r\n\r\n        emit DiplomaIssued(\r\n            tokenId,\r\n            studentIndex,\r\n            studentAddress,\r\n            msg.sender,\r\n            block.timestamp,\r\n            firstName,\r\n            lastName\r\n        );\r\n\r\n        return tokenId;\r\n    }\r\n\r\n    /**\r\n     * @dev Invalidate a diploma\r\n     * @notice Admin can invalidate any diploma\r\n     */\r\n    function invalidateDiploma(\r\n        uint256 tokenId,\r\n        string memory reason\r\n    ) external onlyRole(ADMIN_ROLE) {\r\n        require(_exists(tokenId), \"Diploma does not exist\");\r\n        require(_diplomas[tokenId].isValid, \"Already invalid\");\r\n\r\n        _diplomas[tokenId].isValid = false;\r\n\r\n        emit DiplomaInvalidated(\r\n            tokenId,\r\n            _diplomas[tokenId].studentIndex,\r\n            msg.sender,\r\n            block.timestamp,\r\n            reason\r\n        );\r\n    }\r\n\r\n    /**\r\n     * @dev Re-validate a diploma\r\n     * @notice Admin can re-validate a diploma if needed\r\n     */\r\n    function validateDiploma(uint256 tokenId) external onlyRole(ADMIN_ROLE) {\r\n        require(_exists(tokenId), \"Diploma does not exist\");\r\n        require(!_diplomas[tokenId].isValid, \"Already valid\");\r\n\r\n        _diplomas[tokenId].isValid = true;\r\n\r\n        emit DiplomaValidated(\r\n            tokenId,\r\n            _diplomas[tokenId].studentIndex,\r\n            msg.sender,\r\n            block.timestamp\r\n        );\r\n    }\r\n\r\n    // ============ Query Functions ============\r\n\r\n    /**\r\n     * @dev Get diploma by token ID\r\n     */\r\n    function getDiploma(uint256 tokenId) external returns (\r\n        string memory firstName,\r\n        string memory lastName,\r\n        string memory studentIndex,\r\n        string memory fieldOfStudy,\r\n        string memory grades,\r\n        uint256 credits,\r\n        uint256 gpa,\r\n        uint256 graduationDate,\r\n        string memory transcriptData,\r\n        bool isValid,\r\n        uint256 issuedAt,\r\n        address issuedBy,\r\n        address owner\r\n    ) {\r\n        require(_exists(tokenId), \"Diploma does not exist\");\r\n\r\n        Diploma memory diploma = _diplomas[tokenId];\r\n\r\n        emit DiplomaViewed(tokenId, msg.sender, block.timestamp);\r\n\r\n        return (\r\n            diploma.firstName,\r\n            diploma.lastName,\r\n            diploma.studentIndex,\r\n            diploma.fieldOfStudy,\r\n            diploma.grades,\r\n            diploma.credits,\r\n            diploma.gpa,\r\n            diploma.graduationDate,\r\n            diploma.transcriptData,\r\n            diploma.isValid,\r\n            diploma.issuedAt,\r\n            diploma.issuedBy,\r\n            ownerOf(tokenId)\r\n        );\r\n    }\r\n\r\n    /**\r\n     * @dev Get all diploma token IDs for a student index\r\n     * @notice Returns ALL diplomas for the index (valid and invalid)\r\n     */\r\n    function getDiplomasByIndex(string memory studentIndex) \r\n        external \r\n        returns (uint256[] memory) \r\n    {\r\n        uint256[] memory tokenIds = _indexToDiplomaIds[studentIndex];\r\n        \r\n        emit IndexQueried(\r\n            studentIndex,\r\n            msg.sender,\r\n            block.timestamp,\r\n            tokenIds.length\r\n        );\r\n\r\n        return tokenIds;\r\n    }\r\n\r\n    /**\r\n     * @dev Get only valid diploma for an index\r\n     */\r\n    function getValidDiplomaByIndex(string memory studentIndex) \r\n        external \r\n        view \r\n        returns (uint256) \r\n    {\r\n        uint256[] memory tokenIds = _indexToDiplomaIds[studentIndex];\r\n        \r\n        for (uint256 i = tokenIds.length; i > 0; i--) {\r\n            uint256 tokenId = tokenIds[i - 1];\r\n            if (_diplomas[tokenId].isValid) {\r\n                return tokenId;\r\n            }\r\n        }\r\n        \r\n        revert(\"No valid diploma found\");\r\n    }\r\n\r\n    /**\r\n     * @dev Get all indices for a student wallet\r\n     */\r\n    function getStudentIndices(address studentAddress) \r\n        external \r\n        view \r\n        returns (string[] memory) \r\n    {\r\n        return _studentToIndices[studentAddress];\r\n    }\r\n\r\n    /**\r\n     * @dev Check if diploma is valid\r\n     */\r\n    function isValid(uint256 tokenId) external view returns (bool) {\r\n        require(_exists(tokenId), \"Diploma does not exist\");\r\n        return _diplomas[tokenId].isValid;\r\n    }\r\n\r\n    /**\r\n     * @dev Get total number of issued diplomas\r\n     */\r\n    function totalSupply() external view returns (uint256) {\r\n        return _tokenIdCounter.current() - 1;\r\n    }\r\n\r\n    // ============ Role Management ============\r\n\r\n    /**\r\n     * @dev Grant role to address (Admin only)\r\n     */\r\n    function grantRoleWithLog(address account, bytes32 role) \r\n        external \r\n        onlyRole(ADMIN_ROLE) \r\n    {\r\n        grantRole(role, account);\r\n        \r\n        emit RoleGranted(\r\n            account,\r\n            role,\r\n            msg.sender,\r\n            block.timestamp\r\n        );\r\n    }\r\n\r\n    /**\r\n     * @dev Revoke role from address (Admin only)\r\n     */\r\n    function revokeRoleWithLog(address account, bytes32 role) \r\n        external \r\n        onlyRole(ADMIN_ROLE) \r\n    {\r\n        revokeRole(role, account);\r\n        \r\n        emit RoleRevoked(\r\n            account,\r\n            role,\r\n            msg.sender,\r\n            block.timestamp\r\n        );\r\n    }\r\n\r\n    /**\r\n     * @dev Check if address has admin role\r\n     */\r\n    function isAdmin(address account) external view returns (bool) {\r\n        return hasRole(ADMIN_ROLE, account);\r\n    }\r\n\r\n    /**\r\n     * @dev Check if address has student service role\r\n     */\r\n    function isStudentService(address account) external view returns (bool) {\r\n        return hasRole(STUDENT_SERVICE_ROLE, account);\r\n    }\r\n\r\n    // ============ Required Overrides ============\r\n\r\n    function supportsInterface(bytes4 interfaceId)\r\n        public\r\n        view\r\n        override(ERC721URIStorage, AccessControl)\r\n        returns (bool)\r\n    {\r\n        return super.supportsInterface(interfaceId);\r\n    }\r\n}\r\n\r\n",
  "sourcePath": "D:\\FINKI\\Diplomska\\contracts\\UniversityDiplomaSystem.sol",
  "compiler": {
    "name": "solc",
    "version": "0.8.20+commit.a1b79de6.Emscripten.clang"
  },
  "schemaVersion": "3.4.16",
  "updatedAt": "2025-12-12T09:37:47.992Z",
  "devdoc": {
    "details": "NFT-based diploma system with role-based access control  Features: - Auto-incrementing token IDs (independent of student index) - Multiple diplomas per student index (index is NOT unique) - Automatic invalidation of old diplomas when new one is issued - Role-based access: Admin, Student Service, Student - Comprehensive event logging for all operations",
    "events": {
      "Approval(address,address,uint256)": {
        "details": "Emitted when `owner` enables `approved` to manage the `tokenId` token."
      },
      "ApprovalForAll(address,address,bool)": {
        "details": "Emitted when `owner` enables or disables (`approved`) `operator` to manage all of its assets."
      },
      "BatchMetadataUpdate(uint256,uint256)": {
        "details": "This event emits when the metadata of a range of tokens is changed. So that the third-party platforms such as NFT market could timely update the images and related attributes of the NFTs."
      },
      "MetadataUpdate(uint256)": {
        "details": "This event emits when the metadata of a token is changed. So that the third-party platforms such as NFT market could timely update the images and related attributes of the NFT."
      },
      "RoleAdminChanged(bytes32,bytes32,bytes32)": {
        "details": "Emitted when `newAdminRole` is set as ``role``'s admin role, replacing `previousAdminRole` `DEFAULT_ADMIN_ROLE` is the starting admin for all roles, despite {RoleAdminChanged} not being emitted signaling this. _Available since v3.1._"
      },
      "RoleGranted(bytes32,address,address)": {
        "details": "Emitted when `account` is granted `role`. `sender` is the account that originated the contract call, an admin role bearer except when using {AccessControl-_setupRole}."
      },
      "RoleRevoked(bytes32,address,address)": {
        "details": "Emitted when `account` is revoked `role`. `sender` is the account that originated the contract call:   - if using `revokeRole`, it is the admin role bearer   - if using `renounceRole`, it is the role bearer (i.e. `account`)"
      },
      "Transfer(address,address,uint256)": {
        "details": "Emitted when `tokenId` token is transferred from `from` to `to`."
      }
    },
    "kind": "dev",
    "methods": {
      "approve(address,uint256)": {
        "details": "See {IERC721-approve}."
      },
      "balanceOf(address)": {
        "details": "See {IERC721-balanceOf}."
      },
      "getApproved(uint256)": {
        "details": "See {IERC721-getApproved}."
      },
      "getDiploma(uint256)": {
        "details": "Get diploma by token ID"
      },
      "getDiplomasByIndex(string)": {
        "details": "Get all diploma token IDs for a student index"
      },
      "getRoleAdmin(bytes32)": {
        "details": "Returns the admin role that controls `role`. See {grantRole} and {revokeRole}. To change a role's admin, use {_setRoleAdmin}."
      },
      "getStudentIndices(address)": {
        "details": "Get all indices for a student wallet"
      },
      "getValidDiplomaByIndex(string)": {
        "details": "Get only valid diploma for an index"
      },
      "grantRole(bytes32,address)": {
        "details": "Grants `role` to `account`. If `account` had not been already granted `role`, emits a {RoleGranted} event. Requirements: - the caller must have ``role``'s admin role. May emit a {RoleGranted} event."
      },
      "grantRoleWithLog(address,bytes32)": {
        "details": "Grant role to address (Admin only)"
      },
      "hasRole(bytes32,address)": {
        "details": "Returns `true` if `account` has been granted `role`."
      },
      "invalidateDiploma(uint256,string)": {
        "details": "Invalidate a diploma"
      },
      "isAdmin(address)": {
        "details": "Check if address has admin role"
      },
      "isApprovedForAll(address,address)": {
        "details": "See {IERC721-isApprovedForAll}."
      },
      "isStudentService(address)": {
        "details": "Check if address has student service role"
      },
      "isValid(uint256)": {
        "details": "Check if diploma is valid"
      },
      "issueDiploma(address,string,string,string,string,string,uint256,uint256,uint256,string,string)": {
        "details": "Issue a new diploma NFT"
      },
      "name()": {
        "details": "See {IERC721Metadata-name}."
      },
      "ownerOf(uint256)": {
        "details": "See {IERC721-ownerOf}."
      },
      "renounceRole(bytes32,address)": {
        "details": "Revokes `role` from the calling account. Roles are often managed via {grantRole} and {revokeRole}: this function's purpose is to provide a mechanism for accounts to lose their privileges if they are compromised (such as when a trusted device is misplaced). If the calling account had been revoked `role`, emits a {RoleRevoked} event. Requirements: - the caller must be `account`. May emit a {RoleRevoked} event."
      },
      "revokeRole(bytes32,address)": {
        "details": "Revokes `role` from `account`. If `account` had been granted `role`, emits a {RoleRevoked} event. Requirements: - the caller must have ``role``'s admin role. May emit a {RoleRevoked} event."
      },
      "revokeRoleWithLog(address,bytes32)": {
        "details": "Revoke role from address (Admin only)"
      },
      "safeTransferFrom(address,address,uint256)": {
        "details": "See {IERC721-safeTransferFrom}."
      },
      "safeTransferFrom(address,address,uint256,bytes)": {
        "details": "See {IERC721-safeTransferFrom}."
      },
      "setApprovalForAll(address,bool)": {
        "details": "See {IERC721-setApprovalForAll}."
      },
      "symbol()": {
        "details": "See {IERC721Metadata-symbol}."
      },
      "tokenURI(uint256)": {
        "details": "See {IERC721Metadata-tokenURI}."
      },
      "totalSupply()": {
        "details": "Get total number of issued diplomas"
      },
      "transferFrom(address,address,uint256)": {
        "details": "See {IERC721-transferFrom}."
      },
      "validateDiploma(uint256)": {
        "details": "Re-validate a diploma"
      }
    },
    "title": "UniversityDiplomaSystem",
    "version": 1
  },
  "userdoc": {
    "kind": "user",
    "methods": {
      "getDiplomasByIndex(string)": {
        "notice": "Returns ALL diplomas for the index (valid and invalid)"
      },
      "invalidateDiploma(uint256,string)": {
        "notice": "Admin can invalidate any diploma"
      },
      "issueDiploma(address,string,string,string,string,string,uint256,uint256,uint256,string,string)": {
        "notice": "Automatically invalidates previous diplomas with same index Requirements: - Caller must have STUDENT_SERVICE_ROLE - All required fields must be provided"
      },
      "validateDiploma(uint256)": {
        "notice": "Admin can re-validate a diploma if needed"
      }
    },
    "version": 1
  }
}